:100000000EC020C01FC01EC01DC01CC01BC01AC017
:1000100019C018C017C016C015C014C013C01124D1
:100020001FBECFE5D2E0DEBFCDBF10E0A0E6B0E05E
:10003000E4E8F1E002C005900D92A239B107D9F7CA
:1000400038D09EC0DDCFCF93DF9300D0CDB7DEB7E1
:1000500089836A8387E390E02981FC01208388E318
:1000600090E02A81FC0120830F900F90DF91CF91C7
:100070000895CF93DF9300D01F92CDB7DEB78B8367
:100080008B81882F90E0805A9F4FFC01808189836B
:100090008B81882F90E080599F4FFC0180818A835B
:1000A0006A818981D0DF0F900F900F90DF91CF91FF
:1000B0000895CF93DF9300D000D0CDB7DEB71C8278
:1000C0008EEF89831A824AC08C81882F90E08058F5
:1000D0009F4FFC018081882F90E02A81222F30E001
:1000E000022E02C0959587950A94E2F781709927B0
:1000F000009719F08A81BDDF02C089E0BADF1B8258
:1001000003C08B818E5F8B839B8189819817C8F395
:100110008C81882F90E0019680589F4FFC01808150
:10012000882F90E02A81222F30E0022E02C0959580
:1001300087950A94E2F781709927009719F08A81D0
:1001400098DF06C089E095DF03C08B818E5F8B83CB
:100150008B818823D1F78A818F5F8A838A81883057
:1001600008F4B2CF8981882319F48C818F5F8C8346
:100170008C81803109F41C82898182508983A2CFCD
:04018000F894FFCF21
:1001840018180C0C060612120000000000000000F3
:10019400081008040204021000000000000000001F
:1001A40031236246C48C8919133226644CC8989151
:0201B400310018
:00000001FF
